{
  "contractName": "Election",
  "abi": [
    {
      "inputs": [],
      "stateMutability": "nonpayable",
      "type": "constructor"
    },
    {
      "anonymous": false,
      "inputs": [
        {
          "indexed": true,
          "internalType": "uint256",
          "name": "_candidateId",
          "type": "uint256"
        }
      ],
      "name": "votedEvent",
      "type": "event"
    },
    {
      "inputs": [],
      "name": "candidateCount",
      "outputs": [
        {
          "internalType": "uint256",
          "name": "",
          "type": "uint256"
        }
      ],
      "stateMutability": "view",
      "type": "function"
    },
    {
      "inputs": [
        {
          "internalType": "uint256",
          "name": "",
          "type": "uint256"
        }
      ],
      "name": "candidates",
      "outputs": [
        {
          "internalType": "uint256",
          "name": "id",
          "type": "uint256"
        },
        {
          "internalType": "string",
          "name": "name",
          "type": "string"
        },
        {
          "internalType": "uint256",
          "name": "voteCount",
          "type": "uint256"
        }
      ],
      "stateMutability": "view",
      "type": "function"
    },
    {
      "inputs": [
        {
          "internalType": "address",
          "name": "",
          "type": "address"
        }
      ],
      "name": "voters",
      "outputs": [
        {
          "internalType": "bool",
          "name": "",
          "type": "bool"
        }
      ],
      "stateMutability": "view",
      "type": "function"
    },
    {
      "inputs": [
        {
          "internalType": "uint256",
          "name": "_candidateId",
          "type": "uint256"
        }
      ],
      "name": "vote",
      "outputs": [],
      "stateMutability": "nonpayable",
      "type": "function"
    }
  ],
  "bytecode": "0x608060405234801561001057600080fd5b506100556040518060400160405280600b81526020017f43616e646964617465203100000000000000000000000000000000000000000081525061009e60201b60201c565b6100996040518060400160405280600b81526020017f43616e646964617465203200000000000000000000000000000000000000000081525061009e60201b60201c565b6102a6565b600260008154809291906100b1906101ff565b919050555060405180606001604052806002548152602001828152602001600081525060016000600254815260200190815260200160002060008201518160000155602082015181600101908051906020019061010f929190610120565b506040820151816002015590505050565b82805461012c906101cd565b90600052602060002090601f01602090048101928261014e5760008555610195565b82601f1061016757805160ff1916838001178555610195565b82800160010185558215610195579182015b82811115610194578251825591602001919060010190610179565b5b5090506101a291906101a6565b5090565b5b808211156101bf5760008160009055506001016101a7565b5090565b6000819050919050565b600060028204905060018216806101e557607f821691505b602082108114156101f9576101f8610277565b5b50919050565b600061020a826101c3565b91507fffffffffffffffffffffffffffffffffffffffffffffffffffffffffffffffff82141561023d5761023c610248565b5b600182019050919050565b7f4e487b7100000000000000000000000000000000000000000000000000000000600052601160045260246000fd5b7f4e487b7100000000000000000000000000000000000000000000000000000000600052602260045260246000fd5b610741806102b56000396000f3fe608060405234801561001057600080fd5b506004361061004c5760003560e01c80630121b93f146100515780633477ee2e1461006d578063a3ec138d1461009f578063a9a981a3146100cf575b600080fd5b61006b600480360381019061006691906103a8565b6100ed565b005b610087600480360381019061008291906103a8565b61027d565b6040516100969392919061051e565b60405180910390f35b6100b960048036038101906100b4919061037f565b61032f565b6040516100c691906104a8565b60405180910390f35b6100d761034f565b6040516100e49190610503565b60405180910390f35b6000803373ffffffffffffffffffffffffffffffffffffffff1673ffffffffffffffffffffffffffffffffffffffff16815260200190815260200160002060009054906101000a900460ff1615610179576040517f08c379a0000000000000000000000000000000000000000000000000000000008152600401610170906104c3565b60405180910390fd5b60008111801561018b57506002548111155b6101ca576040517f08c379a00000000000000000000000000000000000000000000000000000000081526004016101c1906104e3565b60405180910390fd5b60016000803373ffffffffffffffffffffffffffffffffffffffff1673ffffffffffffffffffffffffffffffffffffffff16815260200190815260200160002060006101000a81548160ff02191690831515021790555060016000828152602001908152602001600020600201600081548092919061024890610625565b9190505550807ffff3c900d938d21d0990d786e819f29b8d05c1ef587b462b939609625b684b1660405160405180910390a250565b60016020528060005260406000206000915090508060000154908060010180546102a6906105f3565b80601f01602080910402602001604051908101604052809291908181526020018280546102d2906105f3565b801561031f5780601f106102f45761010080835404028352916020019161031f565b820191906000526020600020905b81548152906001019060200180831161030257829003601f168201915b5050505050908060020154905083565b60006020528060005260406000206000915054906101000a900460ff1681565b60025481565b600081359050610364816106dd565b92915050565b600081359050610379816106f4565b92915050565b60006020828403121561039157600080fd5b600061039f84828501610355565b91505092915050565b6000602082840312156103ba57600080fd5b60006103c88482850161036a565b91505092915050565b6103da8161058a565b82525050565b60006103eb8261055c565b6103f58185610567565b93506104058185602086016105c0565b61040e816106cc565b840191505092915050565b6000610426601783610567565b91507f596f75206861766520616c726561647920766f7465642e0000000000000000006000830152602082019050919050565b6000610466601583610567565b91507f496e76616c69642063616e6469646174652049442e00000000000000000000006000830152602082019050919050565b6104a2816105b6565b82525050565b60006020820190506104bd60008301846103d1565b92915050565b600060208201905081810360008301526104dc81610419565b9050919050565b600060208201905081810360008301526104fc81610459565b9050919050565b60006020820190506105186000830184610499565b92915050565b60006060820190506105336000830186610499565b818103602083015261054581856103e0565b90506105546040830184610499565b949350505050565b600081519050919050565b600082825260208201905092915050565b600061058382610596565b9050919050565b60008115159050919050565b600073ffffffffffffffffffffffffffffffffffffffff82169050919050565b6000819050919050565b60005b838110156105de5780820151818401526020810190506105c3565b838111156105ed576000848401525b50505050565b6000600282049050600182168061060b57607f821691505b6020821081141561061f5761061e61069d565b5b50919050565b6000610630826105b6565b91507fffffffffffffffffffffffffffffffffffffffffffffffffffffffffffffffff8214156106635761066261066e565b5b600182019050919050565b7f4e487b7100000000000000000000000000000000000000000000000000000000600052601160045260246000fd5b7f4e487b7100000000000000000000000000000000000000000000000000000000600052602260045260246000fd5b6000601f19601f8301169050919050565b6106e681610578565b81146106f157600080fd5b50565b6106fd816105b6565b811461070857600080fd5b5056fea2646970667358221220c38cc1fdd3881852f98280f33edeaf551283cbbe4dc5c74124991d46c6b09e9164736f6c63430008000033",
  "immutableReferences": {},
  "source": "// SPDX-License-Identifier: UNLICENSED\r\npragma solidity 0.8.0;\r\n\r\ncontract Election {\r\n    // Modelling a candidate\r\n    struct Candidate {\r\n        uint id;\r\n        string name;\r\n        uint voteCount;\r\n    }\r\n\r\n    // Mapping for accounts that have voted (using address instead of uint)\r\n    mapping (address => bool) public voters;\r\n\r\n    // Mapping for candidates\r\n    mapping(uint => Candidate) public candidates;\r\n\r\n    // Store count of candidates\r\n    uint public candidateCount;\r\n\r\n    // Constructor (no need for visibility modifier)\r\n    constructor() {\r\n        addCandidate(\"Candidate 1\");\r\n        addCandidate(\"Candidate 2\");\r\n    }\r\n\r\n    // Add new candidate (private function)\r\n    function addCandidate(string memory _name) private {\r\n        candidateCount++;\r\n        candidates[candidateCount] = Candidate(candidateCount, _name, 0);\r\n    }\r\n\r\n    // Event triggered when a vote is cast\r\n    event votedEvent (\r\n        uint indexed _candidateId\r\n    );\r\n\r\n    // Vote casting function\r\n    function vote(uint _candidateId) public {\r\n        // Check if the voter hasn't already voted\r\n        require(!voters[msg.sender], \"You have already voted.\");\r\n\r\n        // Check whether the candidateId is valid\r\n        require(_candidateId > 0 && _candidateId <= candidateCount, \"Invalid candidate ID.\");\r\n\r\n        // Mark the voter as having voted\r\n        voters[msg.sender] = true;\r\n\r\n        // Update the candidate's vote count\r\n        candidates[_candidateId].voteCount++;\r\n\r\n        // Trigger the voted event\r\n        emit votedEvent(_candidateId);\r\n    }\r\n}\r\n",
  "sourcePath": "E:\\ATU\\Blockchain\\DApps\\Final_Assignment\\election-blockchain\\contracts\\Election.sol",
  "compiler": {
    "name": "solc",
    "version": "0.8.0+commit.c7dfd78e.Emscripten.clang"
  },
  "schemaVersion": "3.4.16",
  "updatedAt": "2024-09-14T07:56:32.529Z",
  "devdoc": {
    "kind": "dev",
    "methods": {},
    "version": 1
  },
  "userdoc": {
    "kind": "user",
    "methods": {},
    "version": 1
  }
}